:1000000002308A00752A00000C10C23AF437EE3034
:100010002021E1396937693D21000C2169396937AF
:10002000E334A029E13CE91EA01264008A24EB34E9
:10003000EE316910D330F9343D10253200010C2126
:1000400069396937E334A029E13CE91EA012640054
:100050008A24EB34EE316910D330F9343D10253267
:1000600000010C2A4F28CC20CD1EA01264002E3097
:1000700084008313000803194B280130F800F701AE
:10008000F70B4028F80B3F284A30F700F70B4628BB
:100090004928800B3D280800350EF039F7000F3055
:1000A000060577048600000006145628061008008E
:1000B0000608F700060E0F39F80008008316061030
:1000C00086100611831286100F3083160605F0384D
:1000D00086008312061500000614000058207808D8
:1000E000B500061000000614000058207808B4007F
:1000F00006100F308316060586008312350EF700B2
:10010000F030F70577083404F8007808B400B41B21
:100110006428321C86103218861400000611000074
:100120000610330EB4000F30B4053408B5004C206F
:1001300033080F39B400B5004C2008002830A8005F
:100140000C30A9000130AA000630AB000610861062
:1001500006110F308316060586000610861006115C
:100160000F308312AE0037200130A7002708033C70
:10017000031CC2280330B5004C200530AE003720E8
:10018000A70AB6280230B5004C200530AE00372053
:10019000A7012708033C031CD9282830270784001F
:1001A00083130008AC00B2012C08B3005E20A70A3C
:1001B000C9288A110A12852A2F0BDF28E22840302D
:1001C000B000E328B00101302E02B00730088038BB
:1001D000B100B2013108B3005E2008002D08073AD3
:1001E0000319FC280B3A03190129063A03190929B6
:1001F000023A03190F2914290130AE00AF00DC20A8
:100200001929B2010130B3005E200230AE00372060
:1002100019290130AE000230AF00DC201929B201EB
:100220001030B3005E2019290130B2002D08B30050
:100230005E2008000B08A7008B13831603178C178A
:100240000C140000000083120313A71B8B17031765
:100250000C087F3903196E290313A70003170D0833
:100260000313A80003170F080313A9002708AD0004
:10027000EE20280803178D000313290803178F00A9
:1002800003130B08AA008B13831603178C170C1487
:100290000000000083120313AA1B8B1703170C0D19
:1002A0000E0D7F3903196E290313A70003170D08DC
:1002B0000313A80003170F080313A9002708AD00B4
:1002C000EE20280803178D000313290803178F0059
:1002D0008D0A03198F0A03131A29031703138A11AE
:1002E0000A128C2A831605148312051C81290130F9
:1002F000A000A101A201A30A831605148312051808
:100300007C290800831685148312851C9129A0017D
:100310000130A100A201A60A831685148312851854
:100320008C290800831605158312051DA329A00139
:10033000A1010130A20023082607A5008316051598
:10034000831205199E2908000B08A8008B13831639
:1003500003178C170C140000000083120313A81B52
:100360008B170318DB2903170C087F390313A80028
:1003700003170D080313A90003170F080313AA009E
:100380002808AD00EE20290803178D0003132A0862
:1003900003178F0003130B08AB008B13831603178F
:1003A0008C170C140000000083120313AB1B8B1777
:1003B000A70BDB29FA2903170C0D0E0D7F39031348
:1003C000A80003170D080313A90003170F08031350
:1003D000AA002808AD00EE20290803178D0003139A
:1003E0002A0803178F008D0A03198F0A03100313BD
:1003F000A70BA42908002E08F8012D020318032AD0
:100400002D08F7000F2AF7010830AF00AD0DF70DEA
:100410002E0877020318F700F80DAF0B062A080024
:100420002030281E3030A9002708F700A71F202AF7
:10043000F709F70A7708A7002D30A900A817281494
:100440002708AD006430AE00FB217708A7003030EC
:100450007807AA002708AD000A30AE00FB21303033
:100460007707AC0030307807AB002908F700303050
:100470002A0203193F2AA814A81B2815532A290861
:10048000AA002030A90030302B0203194B2A28146F
:10049000A81BA814532A031D2814031D532A2A0835
:1004A000AB002030AA0028195A2AA8185D2A28185B
:1004B000602A632A2908AD00EE202A08AD00EE204C
:1004C0002B08AD00EE202C08AD00EE200800A401A2
:1004D0002408133C031C742A7221822192210530C6
:1004E000AE003720A40A682A080003081F398300D9
:1004F000A20183161F149F141F159F1107309C0023
:1005000083130030860083129E28043003178D0069
:1005100000308F0003131A29722182219221200BAF
:10052000B62AA108031DB62AA208031DB62A0D305B
:1005300003178D0000308F0003100F300313A70046
:10054000A4212308A7001830A80010221630031792
:100550008D0000308F0003100E300313A700A4217C
:100560002608A7001830A80010226722A008031D43
:10057000DD2A210BDD2AA208031DDD2A1F30031707
:100580008D0000308F0003100F300313A700A4214B
:100590002308A7001830A8001022283003178D0068
:1005A00000308F0003100E300313A700A42126088B
:1005B000A7001830A80010226722A008031DF52A02
:1005C000A108031DF52A220BF52A313003178D00EF
:1005D00000308F00031009300313A700A421250861
:0E05E000A7001830A800102267228C2A6300A2
:02400E00313F40
:00000001FF
;PIC16F877A
;CRC=BAF4  CREATED="03-May-23 02:28"
