:1000000000308A0019280000223084008313000881
:10001000031918280130F800F701F70B0D28F80B29
:100020000C284A30F700F70B13281628800B0A28F3
:10003000080003081F39830083161F149F141F151F
:100040009F1107309C008313FF308500003086002D
:10005000860183128601831605148312051C9F28CE
:100060000F30A2000420831685148312851C4028BB
:100070000F30A20004208316860183128601A02877
:10008000A0012008133C031C9F28831685148312AB
:10009000851C52280F30A20004208316860183128B
:1000A00086019F2883168601FF30831286008316FF
:1000B00085148312851C64280F30A2000420831647
:1000C0008601831286019F280230A100FA30A20027
:1000D0000420A10B6628831685148312851C7828BA
:1000E0000F30A200042083168601831286019F2808
:1000F0008316860183128601831685148312851C5C
:1001000089280F30A20004208316860183128601FD
:100110009F280230A100FA30A2000420A10B8B28F6
:10012000831685148312851C9D280F30A20004209D
:1001300083168601831286019F28A00A41282B2856
:0201400063005A
:02400E00313F40
:00000001FF
;PIC16F877A
;CRC=D973  CREATED="15-Mar-23 21:12"
