:1000000000308A0040280000FF00030E8301A10099
:100010000A08A0008A010408A2007708A300780853
:10002000A4007908A5007A08A600831383128B1E0A
:100030001B280B192C28220884002308F700240809
:10004000F8002508F9002608FA0020088A00210E89
:100050008300FF0E7F0E09008A110A122F283C3000
:100060008100A70A27080A3C031906142708143C34
:10007000031D3C280610A7010B118A110A121B2828
:1000800003081F398300A70183161F149F141F152F
:100090009F1183130912831290010030F80092001F
:1000A0000030831692001F149F141F159F11831296
:1000B0001F10F03097059D050030831686008312CF
:1000C000860183160108C039073881003C3083124D
:0C00D00081008B16C0308B046C2863008C
:02400E00393B3C
:00000001FF
;PIC16F877
;CRC=A2C1  CREATED="14-Nis-22 22:08"
