:1000000000308A000428000003081F398300AC0177
:10001000FF30AD0083161F149F141F159F1107306A
:100020009C0083133F308312A0000630A1005B3098
:10003000A2004F30A3006630A4006D30A5007C30D4
:10004000A6000730A7007F30A8006F30A900FF305E
:10005000831685000030860087008312AD0083166A
:1000600086013F30831286000030AD008316870181
:10007000013083128700831605148312051C55284E
:10008000AA0A2A080A3C0319AA0120302A07840078
:1000900083130008AE008316860183122E088600A3
:1000A000831605148312051850288316051583122C
:1000B000051D6B28AA0120302A078400831300083D
:1000C000AE008316860183122E088600831605155E
:1000D000831205196628831685148312851C8728C8
:1000E000AA032A08FF3C031D77280930AA00203004
:1000F0002A07840083130008AE008316860183124A
:100100002E088600831685148312851882283B28C2
:0201100063008A
:02400E00323F3F
:00000001FF
;PIC16F877A
;CRC=5207  CREATED="29-Mar-23 21:55"
