:1000000000308A0093280000831605158312051915
:100010001F28831605148312051C1F2883168514B8
:10002000831285181F280130AA00AB012808633C01
:100030000319A80183160514831205181A2808004D
:1000400083160515831205193C288316051483129F
:1000500005183C28831685148312851C3C28013022
:10006000A900AB01A808031D37286330A800831638
:100070008514831285183728080083160515831206
:10008000051D682883160514831205186828831631
:100090008514831285186828A201A701AA010130DE
:1000A000AB00A9018316860183128601361036083B
:1000B0008316870083120714B6103608831687004C
:1000C00083128714A8018316051583120519632866
:1000D00008003A08F8013902031871283908F700B6
:1000E0007D28F7010830BB00B90DF70D3A087702FB
:1000F0000318F700F80DBB0B742808003930840092
:1001000083130008031992280130F800F701F70B58
:100110008728F80B86284A30F700F70B8D2890289F
:10012000800B8428080003081F398300A501A8015B
:10013000AB01FF30B60083161F149F141F159F11CB
:1001400007309C0083133F308312AC000630AD00B3
:100150005B30AE004F30AF006630B0006D30B100A4
:100160007C30B2000730B3007F30B4006F30B50090
:10017000FF30831685000030860087008312B600AA
:10018000831686018312860136103608831687008F
:1001900083120714B610360883168700831287145B
:1001A000831686018312860136103608831687006F
:1001B00083120714B610360883168700831287143B
:1001C000042020203D202A0B42292808643C0319E2
:1001D000A8012808B9000A30BA0069207708A000F1
:1001E0002808B9000A30BA0069207808A300A80AD4
:1001F000B7013708043C031C3B2936103608831628
:100200008700831207142C30200784008313000812
:10021000B900831686018312390886000A30B900B6
:100220007E20361036088316870083120710B6101A
:10023000360883168700831287142C302307840026
:1002400083130008B90083168601831239088600DB
:100250000A30B9007E20B610360883168700831254
:1002600087103D2020202B0B36293829290B3929CE
:100270003B29B70AF9282B0B3E294029290B412994
:100280004229E328290BA329A808031D4929633023
:10029000A8002808B9000A30BA0069207708A4002D
:1002A0002808B9000A30BA0069207808A500013092
:1002B000A802B8013808043C031C9C2936103608F3
:1002C00083168700831207142C30240784008313BD
:1002D0000008B900831686018312390886000A30A7
:1002E000B9007E2036103608831687008312071067
:1002F000B610360883168700831287142C30250722
:10030000840083130008B90083168601831239081C
:1003100086000A30B9007E20B610360883168700A2
:10032000831287103D2004202B0B972999292A0B33
:100330009A299C29B80A5A292B0B9F29A1292A0BF3
:0A034000A229A3294229D028630056
:02400E00323F3F
:00000001FF
;PIC16F877A
;CRC=476D  CREATED="27-Mar-23 20:21"
