:1000000001308A000A290000FF00030E8301A100CD
:100010000A08A0008A010408A2007708A300780853
:10002000A4007908A5007A08A600831383128B1E0A
:100030001B280B192C28220884002308F700240809
:10004000F8002508F9002608FA0020088A00210E89
:100050008300FF0E7F0E09008A110A1244284E30D9
:10006000840083130008031943280130F800F701C6
:10007000F70B3828F80B37284A30F700F70B3E28E3
:100080004128800B35280800F8308100A801280895
:10009000F93C031C9D2846104608831687008312EE
:1000A0000714831688018312450888000530CE00A6
:1000B0002F20461046088316870083120710C610AB
:1000C00046088316870083128714831688018312DB
:1000D000440888000530CE002F20C610460883163D
:1000E0008700831287104611460883168700831203
:1000F0000715831688018312430888000530CE0057
:100100002F20461146088316870083120711C61157
:100110004608831687008312871583168801831289
:10012000420888000530CE002F20C61146088316ED
:10013000870083128711A80A47280B118A110A1217
:100140001B28831689148312891CBF28831609145F
:1001500083120918BF280130AF00AE010030C6007D
:100160008316870183128701831688018312880111
:10017000AD01AC018316891483128918BA280800CE
:100180008316891483128918E228831609148312AE
:10019000091CE2280030C6008316870183128701FC
:1001A0000130AE00A901AF012C08633C031DDD281E
:1001B000AD08031DDD28AD01AC01831609148312BF
:1001C0000918DD288A110A128D29F801F901F701B1
:1001D000FA014C08031DEF284B08031909291030B8
:1001E000CD000310C90DCA0DF70DFA0D4C087A02A7
:1001F000031DFC284B087702031C05294B08F70256
:10020000031CFA034C08FA020314F80DF90DCD0B88
:10021000F128080003081F398300A901AB01AD01D3
:10022000AC01AF01FF30C60083161F149F141F15C9
:100230009F1107309C0083133F308312B0000630BB
:10024000B1005B30B2004F30B3006630B4006D30A7
:10025000B5007C30B6000730B7007F30B8006F3093
:10026000B9005830BA003830BB006D30BC0079306E
:10027000BD005C30BE007330BF007930C000543028
:10028000C100B030C200D430C300F830C400BF3069
:10029000C500FF3083168600091489140915003043
:1002A000880087008312C6008316880183128801A4
:1002B000C60083168701831287018B16C0308B041A
:1002C00083160108C03930388100F830831281006C
:1002D0000030C60083168701FF3083128700831623
:1002E000880183128801A7018B1BA7178B13143079
:1002F000CE002F20A71B8B17A90183168801803001
:1003000083128800A7018B1BA7178B131430CE0014
:100310002F20A71B8B17A120C0282E0B092AC7014D
:100320004708C73C031C052A2D08CA002C08C90031
:10033000CC010A30CB00E5207708AA002D08CA00BE
:100340002C08C900CC010A30CB00E5207808AB00AE
:10035000AC0A0319AD0A2C08643C031DB529AD088D
:10036000031DB529AD01AC01A90AC8014808093C23
:10037000031C002A461046088316870083120714C0
:1003800030302A07840083130008C90083168801CF
:10039000831249088800A7018B1BA7178B13053010
:1003A000CE002F20A71B8B17461046088316870008
:1003B00083120710C610460883168700831287141D
:1003C00030302B07840083130008C900831688018E
:1003D000831249088800A7018B1BA7178B130530D0
:1003E000CE002F20A71B8B17C61046088316870048
:1003F00083128710A1202F0BFE29002AC80AB629D4
:100400002F0B032A052AC70A90292F0B082A092A2D
:060410008D29682963003C
:02400E00323F3F
:00000001FF
;PIC16F877A
;CRC=4313  CREATED="12-Nis-23 21:50"
