:1000000000308A003E280000FF00030E8301A1009B
:100010000A08A0008A010408A2007708A300780853
:10002000A4007908A5007A08A600831383128C30F7
:100030008400801C1D288C182E2822088400230888
:10004000F7002408F8002508F9002608FA0020081F
:100050008A00210E8300FF0E7F0E09008A110A120A
:100060003128A70A83160810831208148316081073
:10007000831208108C108A110A121D2803081F39D8
:100080008300A70183161F149F141F159F110730AB
:100090009C008313013085000030880088018312A2
:1000A00088017830F80006389200FA308316920002
:1000B0008C14C03083128B04831605148312051C24
:1000C0006628831688018312270888005C2863004D
:02400E00323F3F
:00000001FF
;PIC16F877A
;CRC=6B9D  CREATED="19-Nis-23 23:25"
