:1000000000308A004A2800000A108A100A1182076C
:100010003F3406345B344F3466346D347C340734FB
:100020007F346F3477347C3439345E3479347134CE
:10003000831605148312051C2428A301A00A831625
:100040000514831205181F288A110A126A288316BC
:1000500005158312051D34282C30A300A00183163A
:100060000515831205192F280800283084008313F2
:100070000008031949280130F800F701F70B3E2862
:10008000F80B3D284A30F700F70B44284728800B2F
:100090003B28080003081F398300A501FF30A60094
:1000A00083161F149F141F159F1107309C00831384
:1000B000FF3085000030860087008312A60083167B
:1000C000860183128601A600831687010130831200
:1000D00087001828272020080A3C031DBA28831609
:1000E000051583120519BA28272023082C3C03196B
:1000F000BA28A2012208313C031CB9288316051531
:1001000083120519B928272023082C3C0319B92884
:10011000A1012108103C031CB32883160515831286
:100120000519B32821080420A7008316860183122D
:10013000270886000230A7009630A8003520A70BBC
:100140009C2883168601831286010230A700963010
:10015000A8003520A70BA728272023082C3C03192B
:10016000B328A10A892823082C3C0319B928A20A1C
:080170007A286B28692863005E
:02400E00323F3F
:00000001FF
;PIC16F877A
;CRC=EB82  CREATED="22-Mar-23 01:34"
