:1000000000308A00A2280000851C132886010030D9
:10001000D5008316870183128701D201D3010130F5
:10002000D400851811288A110A121029051C2528C8
:1000300086010030D5008316870183128701D20123
:100040000130D300D401051823288A110A1211297E
:10005000051D372886010030D500831687018312DD
:1000600087010130D200D301D401051935280800D9
:100070005B08FB3E03185128053E54281030F80059
:10008000512851280830F800512851280430F80030
:10009000512851280230F800512851280130F80029
:1000A00051288A110A126D280A108A100A11820733
:1000B0004E284A28462842283E28520B5F28013005
:1000C000D9005808590203189F28DA015A08043C3D
:1000D000031C9A285A08DB003828780886005A083A
:1000E000560784008313571883170008DB0000307D
:1000F000D5008316870183125B0887000A30DB0076
:100100005B30840083130008031994280130F80041
:10011000F701F70B8928F80B88284A30F700F70B0E
:100120008F289228800B86282820520B98289A28FE
:10013000DA0A6628520B9D289F28D90A6128520B9B
:10014000A128080003081F398300D201D401FF3021
:10015000D50083161F149F141F159F1107309C0094
:10016000831303308312A0007530A1007630A20003
:100170007530A3000330A400A501F730A600A70046
:10018000A800A901AA01FD30AB00FB30AC00FD3096
:10019000AD00AE01AF01B630B000B100B200BE306C
:1001A000B300FE30B400B500B601B700B800C130EE
:1001B000B900BE30BA00BB00BC00C130BD00FF308A
:1001C000BE00BF00FB30C000FD30C100C201BD3029
:1001D000C3009E30C400AE30C500B630C600B93092
:1001E000C700DD30C800BE30C900B630CA00CB0041
:1001F000C930CC00CD00B630CE00CF00D000C93021
:10020000D1000730831685000030860087008312F6
:10021000D5008601D5008316870183128701042843
:1002200016282820530B3B29D7012030D60019303F
:10023000D8005D20D7012530D6001930D8005D20C8
:10024000D7012A30D6001930D8005D20D7012F30D1
:10025000D6001930D8005D20D7013430D6001930CF
:10026000D8005D200030D5008316870183128701F6
:100270008601D3011229540B7C29D7014330D600C3
:100280001930D8005D20D7013930D6001930D80098
:100290005D20D7013E30D6001930D8005D20D7014F
:1002A0004D30D6001930D8005D20D7013930D60046
:1002B0001930D8005D20D7014830D6001930D80059
:1002C0005D20D7013930D6001930D8005D20D70124
:1002D0003E30D6001930D8005D20D7013930D60025
:1002E0001930D8005D200030D500831687018312B5
:0C02F00087018601D4013B290F2963001F
:02400E00313F40
:00000001FF
;PIC16F877A
;CRC=825D  CREATED="29-Mar-23 05:30"
