:1000000000308A001928000024308400831300087F
:10001000031918280130F800F701F70B0D28F80B29
:100020000C284A30F700F70B13281628800B0A28F3
:10003000080003081F3983000130A000FF30A10031
:1000400083161F149F141F159F1107309C008313E4
:10005000FF3087008312A1000030831688008801DA
:10006000831288010F30F7008101813084008313EF
:100070000008F0390738800064000008F739F719E4
:10008000F03977048000A2012208063C031C5D2899
:10009000831688018312200888000310A00D6430A5
:1000A000A400042021142108831687008312071C52
:1000B0005B2864005228A20A4428A3012308063CB6
:1000C000031C7728831688018312200888000310F8
:1000D000A00C6430A400042021142108831687009A
:1000E0008312071C752864006C28A30A5E2821145B
:1000F0002108831687008312071C80286400772854
:04010000432863002D
:02400E00363F3B
:00000001FF
;PIC16F877A
;CRC=6720  CREATED="18-Nis-23 21:42"
