:1000000001308A00542900000A108A100A11820760
:1000100028340C34013406348C18AE366F3A6F39FC
:10002000A034EC32F23400000C053117ED37F43710
:100030007210E732F23400010C050A19AE366F3A3D
:100040006F39A034EC32F23400010C050A05321786
:10005000ED37F4377210E732F234000025308400B7
:1000600083130008031942280130F800F701F70B49
:100070003728F80B36284A30F700F70B3D28402880
:10008000800B342808002B0EF039F7000F300605DE
:1000900077048600000006144D280610080086101C
:1000A000F030831686008312061500000614000047
:1000B0000608060E0F39AB000610000006140000FB
:1000C0000608060E0F39AA000610003083168600B7
:1000D00083122B0EF700F030F70577082A04F8009A
:1000E0007808AA00AA1B5028281C861028188614F5
:1000F0000000061100000610290EAA000F30AA0504
:100100002A08AB00432029080F39AA00AB0043207E
:100110000800003083168600831286100611061030
:100120000F30A5002E200130A1002108033C031C44
:10013000A1280330AB0043200530A5002E20A10AE2
:1001400095280230AB004320A1012108033C031C89
:10015000B22821080420A200A8012208A9004F20EB
:10016000A10AA5288A110A126C2901302602FC3E38
:100170000318C728043ECF288030A700C728C03006
:10018000A700C7289430A700C728D430A7000130A3
:100190002502A707A8012708A9004F2008000A1078
:1001A0008A100A118207BC28BF28C228C528240843
:1001B0000C3A0319E228063A0319EC28023A03190B
:1001C000F328F828A8010130A9004F200130A00031
:1001D0000230A5002E20FD28A00A0130A50020082D
:1001E000A600B520FD28A8011030A9004F20FD2849
:1001F0000130A8002408A9004F2008000B08A10026
:100200008B13831603178C170C1400000000831245
:100210000313A11B8B1703170C087F3903195229ED
:100220000313A10003170D080313A20003170F08FF
:100230000313A3002108A400D720220803178D0070
:100240000313230803178F0003130B08A4008B1359
:10025000831603178C170C1400000000831203137D
:10026000A41B8B1703170C0D0E0D7F390319522990
:100270000313A10003170D080313A20003170F08AF
:100280000313A3002108A400D720220803178D0020
:100290000313230803178F008D0A03198F0A031312
:1002A000FE2803170313080003081F398300831671
:1002B0001F149F141F159F1107309C008313FF30DC
:1002C000850000308600880086018312860183162F
:1002D0008801831288018928831605148312051C5E
:1002E0009329831608118312081583168811831227
:1002F000881183160810831208148316881083123D
:1003000088100130A500A600B5200C3003178D0021
:1003100000308F000313FE200430A100FA30A50046
:100320002E20A10B8E29831685148312851CBB29D0
:1003300083160811831208158316881183128811F9
:1003400083160810831208108316881083128814ED
:100350000130A5000230A600B520143003178D002F
:1003600000308F000313FE200430A100FA30A500F6
:100370002E20A10BB629831605158312051DE3292E
:1003800083168811831288158316081183120811A9
:100390008316081283120816831688128312881295
:1003A0000130A5000330A600B5201C3003178D00D6
:1003B00000308F000313FE200430A100FA30A500A6
:1003C0002E20A10BDE29831685158312851D0B2A8D
:1003D0008316881183128815831608118312081159
:1003E0008316081283120812831688128312881645
:1003F0000130A5000430A600B520253003178D007C
:1004000000308F000313FE200430A100FA30A50055
:0A0410002E20A10B062A6C296300C0
:02400E00313F40
:00000001FF
;PIC16F877A
;CRC=063F  CREATED="30-May-23 19:51"
