:1000000000308A0019280000233084008313000880
:10001000031918280130F800F701F70B0D28F80B29
:100020000C284A30F700F70B13281628800B0A28F3
:10003000080003081F398300A001FF30A1008316C8
:100040001F149F141F159F1107309C0083131F144A
:100050009F141F159F1183121F10831609128312FC
:100060009412A112210883168700831221162108F9
:10007000831687008312A11121088316870001309F
:10008000831294000030831694000108C7390838A1
:100090008100831290010030F80092000030831636
:1000A0009200860083128601A00120080E3C031CEA
:1000B0007D280F3086000230A200FA30A300042011
:1000C000A20B5D2886010230A200FA30A3000420B2
:1000D000A20B6528F03086000230A200FA30A3009F
:1000E0000420A20B6E2886010230A200FA30A30081
:1000F0000420A20B7628A00A5528A0012008043C61
:10010000031CA628553086000430A200FA30A30054
:100110000420A20B862886010430A200FA30A30036
:100120000420A20B8E28AA3086000430A200FA30E8
:10013000A3000420A20B972886010430A200FA3005
:10014000A3000420A20B9F28A00A7E28A00120085B
:100150000E3C031CCF280F3086000230A200FA307C
:10016000A3000420A20BAF2886010230A200FA30BF
:10017000A3000420A20BB728F03086000230A200B2
:10018000FA30A3000420A20BC02886010230A2008E
:10019000FA30A3000420A20BC828A00AA728A001B7
:1001A0002008043C031CF828553086000430A200C7
:1001B000FA30A3000420A20BD82886010430A20044
:1001C000FA30A3000420A20BE028AA3086000430F5
:1001D000A200FA30A3000420A20BE9288601043013
:1001E000A200FA30A3000420A20BF128A00AD02814
:0401F000A6286300DA
:02400E00323F3F
:00000001FF
;PIC16F877A
;CRC=C5B7  CREATED="06-Mar-23 18:40"
