:1000000000308A0071280000831605158312051937
:100010001B28831605148312051C1B2883168514C0
:10002000831285181B280130A800A9018316051426
:100030008312051816280800831605158312051962
:100040003328831605148312051833288316851464
:100050008312851C33280130A700A901831685145B
:10006000831285182E280800831605158312051D96
:100070004B2883160514831205184B288316851404
:10008000831285184B280130A900A7018316051596
:1000900083120519462808003630840083130008AF
:1000A000031960280130F800F701F70B5528F80B09
:1000B00054284A30F700F70B5B285E28800B522843
:1000C0000800B5013508253C031C6E280530B60034
:1000D0004C2034201C200420B50A62288A110A1200
:1000E000EF2803081F398300A301A601A901FF30EF
:1000F000B40083161F149F141F159F1107309C0016
:1001000083133F308312AA000630AB005B30AC0093
:100110004F30AD006630AE006D30AF007C30B000C7
:100120000730B1007F30B2006F30B300FF3083166C
:1001300085000030860087008312B4008316860194
:1001400083128601B4008316870101308312870071
:1001500004201C203420280BF228A0012008093C90
:10016000031CF12824080A3C031DBC28A60AA4018C
:1001700026080A3C0319A6012608003C031CC228D5
:100180000030C3280130093C031CDB282A30260735
:10019000840083130008A2000030B4008316870196
:1001A000023083128700831686018312220886009C
:1001B0001430B6004C202A30200784008313000836
:1001C000A1000030B400831687010130831287003C
:1001D00083168601831221088600A40A6128A00ADA
:0801E000AE28AB28A82863003B
:02400E00323F3F
:00000001FF
;PIC16F877A
;CRC=515E  CREATED="27-Mar-23 00:43"
