:1000000000308A0067280000831605158312051941
:100010001B28831605148312051C1B2883168514C0
:10002000831285181B280130A800A9018316051426
:100030008312051816288A110A129F28831605159F
:1000400083120519352883160514831205183528DF
:10005000831685148312851C35280130A700A90159
:10006000831685148312851830288A110A12A02855
:10007000831605158312051D4F2883160514831258
:1000800005184F2883168514831285184F280130D0
:10009000A900A70183160515831205194A288A119C
:1000A0000A12A1283530840083130008031966283A
:1000B0000130F800F701F70B5B28F80B5A284A309B
:1000C000F700F70B61286428800B58280800030804
:1000D0001F398300A301A601A901FF30B4008316D4
:1000E0001F149F141F159F1107309C0083133F306E
:1000F0008312AA000630AB005B30AC004F30AD007D
:100100006630AE006D30AF007C30B0000730B1001B
:100110007F30B2006F30B300FF30831685000030AF
:10012000860087008312B40083168601831286013D
:10013000B4008316870101308312870004281E282B
:100140003828280BEA28A0012008093C031CE928CC
:1001500024080A3C031DB228A60AA40126080A3C6A
:100160000319A6012608003C031CB8280030B92852
:100170000130093C031CD1282A3026078400831350
:100180000008A2000030B4008316870102308312F9
:100190008700831686018312220886000A30B50084
:1001A00052202A302007840083130008A100003069
:1001B000B4008316870101308312870083168601FD
:1001C000831221088600A40A0A30B5005220A00A32
:0801D000A428A1289E28630069
:02400E00323F3F
:00000001FF
;PIC16F877A
;CRC=1C4C  CREATED="26-Mar-23 10:17"
