:1000000002308A00492A0000FF00030E8301A1008C
:100010000A08A0008A010408A2007708A300780853
:10002000A4007908A5007A08A60003170D08031399
:10003000A70003170F080313A80003170C080313E6
:10004000A90003170E080313AA00831383120B1EC3
:100050002B288B184C28220884002308F70024083A
:10006000F8002508F9002608FA00270803178D0074
:100070000313280803178F000313290803178C00A4
:1000800003132A0803178E00031320088A00210E89
:100090008300FF0E7F0E09008A110A121929550EDE
:1000A000F039F7000F3008057704880000000814C5
:1000B00059280810080083160810881008118312A8
:1000C00088100F3083160805F03888008312081551
:1000D0000000081400000808F700080E0F39F800A7
:1000E0007808D50008100000081400000808F70080
:1000F000080E0F39F8007808D40008100F30831666
:10010000080588008312550EF700F030F7057708D0
:100110005404F8007808D400D41B6128521C8810BD
:10012000521888140000081100000810530ED40063
:100130000F30D4055408D5004F2053080F39D40090
:10014000D5004F2008004E308400831300080319A7
:10015000B7280130F800F701F70BAC28F80BAB28F3
:100160004A30F700F70BB228B528800BA928080001
:100170004D08073A0319C6280B3A0319DB28063A3B
:100180000319E328023A0319F928FE280130CE00AA
:10019000CF004F0BCC28CF284030D000D028D00142
:1001A00001304E02D00750088038D100D2015108EA
:1001B000D3005B200329D2010130D3005B20023041
:1001C000CE00A32003290130CE000230CF004F0B18
:1001D000EA28ED284030D000EE28D00101304E0250
:1001E000D00750088038D100D2015108D3005B20DD
:1001F0000329D2011030D3005B2003290130D20043
:100200004D08D3005B2008004E08F8014D0203188A
:100210000C294D08F7001829F7010830CF00CD0D43
:10022000F70D4E0877020318F700F80DCF0B0F29D2
:1002300008002C300707840083130008C6000C3028
:10024000CD00B8204608C7001830C8002030481E2E
:100250003030C9004708F700C71F3629F709F70AE9
:100260007708C7002D30C900C81748144708CD00CB
:100270006430CE0004217708C70030307807CA0008
:100280004708CD000A30CE00042130307707CC007B
:1002900030307807CB004908F70030304A020319A4
:1002A0005529C814C81B481569294908CA002030B7
:1002B000C90030304B02031961294814C81BC81407
:1002C0006929031D4814031D69294A08CB00203001
:1002D000CA0048197029C81873294818762979293D
:1002E0004908CD00B8204A08CD00B8204B08CD0001
:1002F000B8204C08CD00B8208B108A110A122B2888
:10030000C8326C366F002830BA000C30BB000130A8
:10031000BC000630BD000810881008110F3083168D
:10032000080588000810881008118312AB018B1B88
:10033000AB178B130F30CE00A320AB1B8B170130F4
:10034000B9003908033C031CB929AB018B1BAB175F
:100350008B130330D5004F20AB1B8B17AB018B1BCE
:10036000AB178B130530CE00A320AB1B8B17B90A3C
:10037000A129AB018B1BAB178B130230D5004F208B
:10038000AB1B8B17AB018B1BAB178B130530CE0050
:10039000A320AB1B8B17B9013908033C031CE229CE
:1003A0003A303907840083130008BE00AB018B1B71
:1003B000AB178B13D2013E08D3005B20AB1B8B170E
:1003C000B90ACC298A110A127D2A0B08B9008B13AD
:1003D000831603178C170C140000000083120313FC
:1003E000B91B8B1703170C087F390319452A031310
:1003F000B90003170D080313BA0003170F080313FE
:10040000BB00AB018B1BAB178B133908CD00B82099
:10041000AB1B8B173A0803178D0003133B08031718
:100420008F0003130B08BC008B13831603178C1764
:100430000C140000000083120313BC1B8B1703175E
:100440000C0D0E0D7F390319452A0313B90003174C
:100450000D080313BA0003170F080313BB00AB0109
:100460008B1BAB178B133908CD00B820AB1B8B1738
:100470003A0803178D0003133B0803178F008D0AFA
:1004800003198F0A0313E529031703138A110A12AC
:10049000842A03081F398300FF30B80083161F1415
:1004A0009F141F159F1107309C0083130130831286
:1004B000AC000230AD000330AE000430AF000530B8
:1004C000B0000630B1000730B2000830B300093088
:1004D000B4000F30B500B601B700013083168600B6
:1004E000F03087008312B8000030831688000117AF
:1004F00083120B16C0308B048329803003178D00C4
:0C05000001308F000313E529842A6300FA
:02400E00733FFE
:00000001FF
;PIC16F877A
;CRC=4A59  CREATED="16-Haz-23 07:49"
