:1000000000308A0019280000233084008313000880
:10001000031918280130F800F701F70B0D28F80B29
:100020000C284A30F700F70B13281628800B0A28F3
:10003000080003081F398300A10183161F149F14B1
:100040001F159F1107309C008313FF30850000307F
:100050008600860183128601831605148312051C0F
:100060003B280F30A30004200130A107831605149C
:10007000831205183628831685148312851C482898
:100080000F30A3000420A10183168601831286018C
:1000900021080A3C031DB828831685148312851C89
:1000A00059280F30A300042083168601831286018D
:1000B000B928A0012008133C031CB8288316851416
:1000C0008312851C6B280F30A30004208316860141
:1000D00083128601B82883168601FF3083128600BA
:1000E000831685148312851C7D280F30A3000420FD
:1000F0008316860183128601B8280230A200FA30E6
:10010000A3000420A20B7F28831685148312851C6C
:1001100091280F30A30004208316860183128601E4
:10012000B8288316860183128601831685148312EC
:10013000851CA2280F30A300042083168601831299
:100140008601B8280230A200FA30A3000420A20BD6
:10015000A428831685148312851CB6280F30A300AB
:1001600004208316860183128601B828A00A5A2823
:040170002C286300D4
:02400E00313F40
:00000001FF
;PIC16F877A
;CRC=EAEA  CREATED="15-Mar-23 21:29"
