:1000000001308A0008290000FF00030E8301A100CF
:100010000A08A0008A010408A2007708A300780853
:10002000A4007908A5007A08A600831383120B1E8A
:100030001B288B182C28220884002308F70024088A
:10004000F8002508F9002608FA0020088A00210E89
:100050008300FF0E7F0E09008A110A1244285030D7
:10006000840083130008031943280130F800F701C6
:10007000F70B3828F80B37284A30F700F70B3E28E3
:100080004128800B35280800A8012808273C031CBC
:100090009B28461046088316870083120714831690
:1000A00088018312450888000530D0002F204610B3
:1000B00046088316870083120710C6104608831669
:1000C00087008312871483168801831244088800EE
:1000D0000530D0002F20C6104608831687008312F3
:1000E000871046114608831687008312071583166A
:1000F00088018312430888000530D0002F20461164
:1001000046088316870083120711C6114608831616
:10011000870083128715831688018312420888009E
:100120000530D0002F20C6114608831687008312A1
:100130008711A80A45288B108A110A121B288316DA
:1001400089148312891CBD28831609148312091887
:10015000BD280130AF00AE010030C6008316870114
:10016000831287018316880183128801AD01AC01D7
:100170008316891483128918B828080083168914F5
:1001800083128918E028831609148312091CE028B9
:100190000030C60083168701831287010130AE004C
:1001A000A901AF012C08633C031DDB28AD08031D2A
:1001B000DB28AD01AC018316091483120918DB2872
:1001C0008A110A128629F801F901F701FA014E088D
:1001D000031DED284D08031907291030CF00031027
:1001E000CB0DCC0DF70DFA0D4E087A02031DFA283F
:1001F0004D087702031C03294D08F702031CFA037C
:100200004E08FA020314F80DF90DCF0BEF28080081
:1002100003081F398300A901AB01AD01AC01AF0197
:10022000FF30C60083161F149F141F159F1107303F
:100230009C0083133F308312B0000630B1005B3066
:10024000B2004F30B3006630B4006D30B5007C3082
:10025000B6000730B7007F30B8006F30B9005830B3
:10026000BA003830BB006D30BC007930BD005C3066
:10027000BE007330BF007930C0005430C100B030D0
:10028000C200D430C300F830C400BF30C500FF3016
:100290008316860009148914091500308800870028
:1002A0008312C6008316880183128801C600831654
:1002B0008701831287010B16C0308B04831601134C
:1002C00000308312C60083168701FF308312870037
:1002D0008316880183128801A7018B1BA7178B1334
:1002E0001430D0002F20A71B8B17A901831688017B
:1002F000803083128800A7018B1BA7178B13143043
:10030000D0002F20A71B8B179F20BE282E0BF42A6E
:10031000C7014708183C031CFB29461046088316F2
:10032000870083120714831688018312410888000E
:10033000A7018B1BA7178B130530D0002F20A71BFD
:100340008B17461046088316870083120710C610C5
:100350004608831687008312871483168801831248
:1003600040088800A7018B1BA7178B130530D0000E
:100370002F20A71B8B17C6104608831687008312F1
:1003800087104611460883168700831207158316C7
:10039000880183123F088800A7018B1BA7178B13C6
:1003A0000530D0002F20A71B8B1746114608831657
:1003B000870083120711C61146088316870083122F
:1003C00087158316880183123E088800A7018B1BBE
:1003D000A7178B130530D0002F20A71B8B17C61132
:1003E000460883168700831287119F202F0BF92957
:1003F000FB29C70A89292F0BFE29F42AC8014808BE
:10040000C73C031C742A2D08CC002C08CB00CE015D
:100410000A30CD00E3207708AA002D08CC002C0874
:10042000CB00CE010A30CD00E3207808AB00AC0A47
:100430000319AD0A2C08643C031D242AAD08031DD2
:10044000242AAD01AC01A90AC9014908093C031CD1
:100450006F2A46104608831687008312071430302F
:100460002A07840083130008CB00831688018312B7
:100470004B088800A7018B1BA7178B130530D000F2
:100480002F20A71B8B174610460883168700831260
:100490000710C61046088316870083128714303071
:1004A0002B07840083130008CB0083168801831276
:1004B0004B088800A7018B1BA7178B130530D000B2
:1004C0002F20A71B8B17C6104608831687008312A0
:1004D00087109F202F0B6D2A6F2AC90A252A2F0B00
:1004E000722A742AC80AFF292F0B772AF42A2908AE
:1004F000023C031DF02ACA014A08183C031CEE2ADC
:100500004610460883168700831207148316880155
:1005100083123D088800A7018B1BA7178B1305309A
:10052000D0002F20A71B8B17461046088316870084
:1005300083120710C610460883168700831287149B
:100540008316880183123C088800A7018B1BA7171C
:100550008B130530D0002F20A71B8B17C610460821
:10056000831687008312871046114608831687007A
:10057000831207158316880183123B088800A701A0
:100580008B1BA7178B130530D0002F20A71B8B17B1
:10059000461146088316870083120711C6114608C4
:1005A00083168700831287158316880183123A0801
:1005B0008800A7018B1BA7178B130530D0002F20B5
:1005C000A71B8B17C6114608831687008312871155
:1005D0009F202F0BEC2AEE2ACA0A7C2AAE01F42AAD
:0E05E0002F0BF32AF42A862983166029630064
:02400E00323F3F
:00000001FF
;PIC16F877A
;CRC=2E3E  CREATED="02-Nis-23 03:34"
