:1000000000308A00D52800003730840083130008B0
:10001000031918280130F800F701F70B0D28F80B29
:100020000C284A30F700F70B13281628800B0A28F3
:10003000080083160515831205193D28831605143B
:100040008312051C3D2883168514831285183D28CC
:100050000F30B70004200130A900AA012608E73CB0
:10006000031D38282708033C031D3828A701A601D3
:10007000831605148312051838288A110A122529B7
:100080008316051583120519642883160514831237
:1000900005186428831685148312851C64280F3084
:1000A000B70004200130A800AA01A608031D5F289C
:1000B000A708031D5F280330A700E730A6008316BA
:1000C0008514831285185F288A110A12262983163F
:1000D00005158312051D982883160514831205182B
:1000E000982883168514831285189828A301A901DE
:1000F0000130AA00A80183168601831286013510FB
:1001000035088316870083120714B5103508831647
:1001100087008312871435113508831687008312F0
:100120000715A701A6018316051583120519932843
:100130000800F801F901F701FA013A08031DA328A4
:1001400039080319BD281030BB000310B70DB80DD6
:10015000F70DFA0D3A087A02031DB0283908770224
:10016000031CB9283908F702031CFA033A08FA02FB
:100170000314F80DF90DBB0BA52808003808F80189
:1001800037020318C6283708F700D228F7010830CD
:10019000B900B70DF70D380877020318F700F80D0E
:1001A000B90BC9288A110A12452903081F3983008F
:1001B000A001A501A701A601AA01FF30B500831681
:1001C0001F149F141F159F1107309C0083133F308D
:1001D0008312AB000630AC005B30AD004F30AE0098
:1001E0006630AF006D30B0007C30B1000730B20037
:1001F0007F30B3006F30B400FF30831685000030CD
:10020000860087008312B50083168601831286015B
:10021000351035088316870083120714B51035088A
:100220008316870083128714831686018312860142
:10023000351035088316870083120714B51035086A
:100240008316870083128714192840286720290BFA
:100250002A292C29280BDB292708B8002608B700F3
:10026000BA010A30B90099207708A1002708B80020
:100270002608B700BA016430B90099207708A000B9
:100280002008B7000A30B800BE287808A400270864
:10029000B8002608B700BA016430B9009920780880
:1002A000A500290B6029A60A0319A70A2608E83C1D
:1002B000031D60292708033C031D6029A701A6012F
:1002C000280B6E2926080319A703A60B6E29A70879
:1002D000031D6E290330A700E730A600B6013608DB
:1002E000033C031CD7293510350883168700831279
:1002F00007142B302107840083130008B7008316EE
:1003000086018312370886000530B70004203510B7
:1003100035088316870083120710B5103508831639
:100320008700831287142B3024078400831300086E
:10033000B700831686018312370886000530B700A0
:100340000420B510350883168700831287103511F5
:10035000350883168700831207152B302507840084
:1003600083130008B70083168601831237088600BE
:100370000530B70004203511350883168700831235
:1003800007116720831685148312851CCA29013042
:10039000A800A901831605148312051CD229A801FF
:1003A0000130A9002A0BD529D729B60A6F292A0BB3
:0A03B000DA29DB292729142963004C
:02400E00323F3F
:00000001FF
;PIC16F877A
;CRC=5C7D  CREATED="29-Mar-23 01:05"
