:1000000000308A001928000024308400831300087F
:10001000031918280130F800F701F70B0D28F80B29
:100020000C284A30F700F70B13281628800B0A28F3
:10003000080003081F398300A30183161F149F14AF
:100040001F159F1107309C00831309128312900122
:100050000030F80092000030831692001F149F14A5
:100060001F159F1183121F10F03097059D05FF305B
:100070008316850000308600860183128601831670
:1000800005148312051C4E280F30A40004200130F3
:10009000A3078316051483120518492883168514AF
:1000A0008312851C5D28A3018316860183128601B5
:1000B0008316851483128518582823080A3C031DCB
:1000C000BF280130A200831685148312851C6D2879
:1000D0008316860183128601C028A1012108633C92
:1000E000031CBF28831685148312851C7C28831665
:1000F000860183128601BF28A0012008073C031C4B
:100100009728831685148312851C8B2883168601F5
:10011000831286019728831686018312220886009F
:100120000310A20D6430A4000420A00A7D288030B2
:10013000A200831686018312220886006430A40080
:100140000420A0012008063C031CBC28831685144B
:100150008312851CB0288316860183128601BC2871
:100160000310A20C831686018312220886006430D5
:10017000A4000420A00AA228A301A10A6E283F28F7
:0201800063001A
:02400E00313F40
:00000001FF
;PIC16F877A
;CRC=CC87  CREATED="15-Mar-23 01:28"
