:1000000005308A00AE2D00008A396F37F5313D008A
:100010000C104F270001413084008313000803199E
:100020001F280130F800F701F70B1428F80B1328EC
:100030004A30F700F70B1A281D28800B11280800FA
:10004000480EF039F7000F300605770486000000EF
:1000500006142A28061008000608F700060E0F39B5
:10006000F800080083160610861006118312861009
:100070000F3083160605F03886008312061500003F
:10008000061400002C207808C80006100000061492
:1000900000002C207808C70006100F3083160605D4
:1000A00086008312480EF700F030F7057708470402
:1000B000F8007808C700C71B3828451C861045186B
:1000C00086140000061100000610460EC7000F300F
:1000D000C7054708C800202046080F39C700C800D8
:1000E000202008002830B5000C30B6000130B700E1
:1000F0000630B8000610861006110F30831606056C
:1001000086000610861006110F308312C1000B20E6
:100110000130B4003408033C031C96280330C800A7
:1001200020200530C1000B20B40A8A280230C80004
:1001300020200530C1000B20B4013408033C031C0F
:10014000AD2835303407840083130008B900C50199
:100150003908C6003220B40A9D288A110A12D32D0C
:10016000420BB328B6284030C300B728C301013082
:100170004102C30743088038C400C5014408C600D3
:10018000322008004008073A0319D0280B3A031917
:10019000D528063A0319DD28023A0319E328E8288E
:1001A0000130C100C200B020ED28C5010130C600F9
:1001B00032200230C1000B20ED280130C100023096
:1001C000C200B020ED28C5011030C6003220ED2855
:1001D0000130C5004008C600322008002030C000B1
:1001E000BC01BD01BE01BF013708FA003608F900A5
:1001F0003508F8003408F7000310771C0D2938087B
:10020000BC0739080318390FBD073A0803183A0F1D
:10021000BE073B0803183B0FBF07BF0CBE0CBD0C4D
:10022000BC0CFA0CF90CF80CF70CC00BFC280800FD
:100230000B08B4008B13831603178C170C140000E3
:10024000000083120313B41B8B1703170C087F39AC
:1002500003196C290313B40003170D080313B50029
:1002600003170F080313B6003408C000C220350876
:1002700003178D000313360803178F0003130B08B1
:10028000B7008B13831603178C170C1400000000A3
:1002900083120313B71B8B1703170C0D0E0D7F3939
:1002A00003196C290313B40003170D080313B500D9
:1002B00003170F080313B6003408C000C220350826
:1002C00003178D000313360803178F008D0A0319D7
:1002D0008F0A0313182903170313080083187329BF
:1002E000483084008313F701F801F901FA01C801CD
:1002F000C901CA01CB014708460445044404031957
:10030000B1292030CC000310C00DC10DC20DC30DAA
:10031000C80DC90DCA0DCB0D47084B02031D9A2904
:1003200046084A02031D9A2945084902031D9A29D5
:1003300044084802031CAB294408C8024508031CB2
:10034000450FC9024608031C460FCA024708031C92
:10035000470FCB020314F70DF80DF90DFA0DCC0B76
:10036000832948088000840A49088000840A4A08D2
:100370008000840A4B08800008000408B800B71FFA
:10038000CE29B803B816B409B509B609B709B40A35
:100390000319B50A0319B60A0319B70A3B30BF009F
:1003A0009A30BE00CA30BD00BC010A30BA008314C6
:1003B0003430840083133708C3003608C200350880
:1003C000C1003408C0003F08C7003E08C6003D0811
:1003D000C5003C08C4006E217808F708031D032AF5
:1003E0003A08013A0319032A38080319052A0F3974
:1003F0003A020319FD290318212AB81B212A381BA8
:10040000052A20301D2A2030B805B81E102AB8123F
:100410007708B8002D30C000C2203808F700B801B6
:100420003030B81E1D2AB8127708B8002D30C00031
:10043000C2203808F700B8013030F7077708C0004D
:10044000C22083103F08C3003E08C2003D08C1001F
:100450003C08C000C701C601C5010A30C4006E21B6
:100460007A08BF007908BE007808BD007708BC0094
:10047000BA0BD72908000814081E6B2A081A3E2A4E
:100480003730C000C220AB01AA01A9010730A80083
:100490002708B7002608B6002508B5002408B400D0
:1004A000BB01BA01B9010A30B800EE20280877076D
:1004B000A4007808A50029080318290FA5077908C2
:1004C000A6002A0803182A0FA6077A08A7002B08F7
:1004D00003182B0FA707881E9A2A881A6D2A38300E
:1004E000C000C220AB01AA01A9010830A80027085A
:1004F000B7002608B6002508B5002408B400BB01E3
:10050000BA01B9010A30B800EE2028087707A40024
:100510007808A50029080318290FA5077908A6005F
:100520002A0803182A0FA6077A08A7002B08031821
:100530002B0FA707081FC92A081B9C2A3930C000A7
:10054000C220AB01AA01A9010930A8002708B70001
:100550002608B6002508B5002408B400BB01BA017E
:10056000B9010A30B800EE2028087707A4007808FF
:10057000A50029080318290FA5077908A6002A084D
:1005800003182A0FA6077A08A7002B0803182B0FB9
:10059000A707881FE12A881BCB2A2F30C000C22062
:1005A0002708A3002608A2002508A1002408A0000F
:1005B000AF01AE01AD010430AC00A701A601A50159
:1005C000A40108108814081E122B081AE52A3430DA
:1005D000C000C220AB01AA01A9010430A80027086D
:1005E000B7002608B6002508B5002408B400BB01F2
:1005F000BA01B9010A30B800EE2028087707A40034
:100600007808A50029080318290FA5077908A6006E
:100610002A0803182A0FA6077A08A7002B08031830
:100620002B0FA707881E412B881A142B3530C000CA
:10063000C220AB01AA01A9010530A8002708B70014
:100640002608B6002508B5002408B400BB01BA018D
:10065000B9010A30B800EE2028087707A40078080E
:10066000A50029080318290FA5077908A6002A085C
:1006700003182A0FA6077A08A7002B0803182B0FC8
:10068000A707081F702B081B432B3630C000C22061
:10069000AB01AA01A9010630A8002708B700260867
:1006A000B6002508B5002408B400BB01BA01B901A1
:1006B0000A30B800EE2028087707A4007808A500C3
:1006C00029080318290FA5077908A6002A08031886
:1006D0002A0FA6077A08A7002B0803182B0FA707D5
:1006E000881F882B881B722B2A30C000C220270845
:1006F000A3002608A2002508A1002408A000AF013D
:10070000AE01AD010330AC00A701A601A501A40113
:1007100088100815081EB92B081A8C2B3130C00020
:10072000C220AB01AA01A9010130A8002708B70027
:100730002608B6002508B5002408B400BB01BA019C
:10074000B9010A30B800EE2028087707A40078081D
:10075000A50029080318290FA5077908A6002A086B
:1007600003182A0FA6077A08A7002B0803182B0FD7
:10077000A707881EE82B881ABB2B3230C000C22086
:10078000AB01AA01A9010230A8002708B70026087A
:10079000B6002508B5002408B400BB01BA01B901B0
:1007A0000A30B800EE2028087707A4007808A500D2
:1007B00029080318290FA5077908A6002A08031895
:1007C0002A0FA6077A08A7002B0803182B0FA707E4
:1007D000081F172C081BEA2B3330C000C220AB01C6
:1007E000AA01A9010330A8002708B7002608B6000F
:1007F0002508B5002408B400BB01BA01B9010A30CC
:10080000B800EE2028087707A4007808A50029087A
:100810000318290FA5077908A6002A0803182A0F2C
:10082000A6077A08A7002B0803182B0FA707881F15
:100830002F2C881B192C2D30C000C2202708A300A4
:100840002608A2002508A1002408A000AF01AE01DF
:10085000AD010230AC00A701A601A501A401081159
:100860008815081E532C081A332C083003178D00E6
:1008700000308F00031318210C30C000C220A301E8
:10088000A201A101A001A701A601A501A401AB013C
:10089000AA01A901A801AF01AE01AD01AC01B301EC
:1008A000B201B101B001881E812C881A552C30305C
:1008B000C000C220AB01AA01A901A8012708B70006
:1008C0002608B6002508B5002408B400BB01BA010B
:1008D000B9010A30B800EE2028087707A40078088C
:1008E000A50029080318290FA5077908A6002A08DA
:1008F00003182A0FA6077A08A7002B0803182B0F46
:10090000A707081F902D081B832C6430C1000B2003
:10091000043003178D0000308F00031318212C08BA
:10092000F7002D08FA007A08031D9A2C013077028F
:100930000319B02C7A08031DA12C02307702031989
:10094000E52C7A08031DA82C0330770203191A2D11
:100950007A08031DAF2C043077020319532D8C2D18
:1009600024082007B0002108B10025080318250F2E
:10097000B1072208B20026080318260FB207230881
:10098000B30027080318270FB3074130840033084A
:10099000B7003208B6003108B5003008B400BD21F8
:1009A000A301A201A101A001A701A601A501A40123
:1009B000AB01AA01A901A801AF01AE01AD01AC01D3
:1009C000B301B201B101B0018C2D24082002B000A6
:1009D0002108B1002508031C250FB1022208B2002E
:1009E0002608031C260FB2022308B3002708031CA5
:1009F000270FB302413084003308B7003208B60035
:100A00003108B5003008B400BD21A301A201A10145
:100A1000A001A701A601A501A401AB01AA01A9019A
:100A2000A801AF01AE01AD01AC01B301B201B1014A
:100A3000B0018C2D2308B7002208B6002108B500AC
:100A40002008B4002708BB002608BA002508B90012
:100A50002408B800EE207A08B3007908B2007808BC
:100A6000B1007708B000413084003308B700320885
:100A7000B6003108B5003008B400BD21A301A201C1
:100A8000A101A001A701A601A501A401AB01AA0132
:100A9000A901A801AF01AE01AD01AC01B301B201E2
:100AA000B101B0018C2D83102308C3002208C200BD
:100AB0002108C1002008C0002708C7002608C6007A
:100AC0002508C5002408C4006E217A08B3007908FF
:100AD000B2007808B1007708B000413084003308D4
:100AE000B7003208B6003108B5003008B400BD21A7
:100AF000A301A201A101A001A701A601A501A401D2
:100B0000AB01AA01A901A801AF01AE01AD01AC0181
:100B1000B301B201B101B001AF01AE01AD01AC0151
:100B2000881FA82D881B922D2B30C000C2202708BB
:100B3000A3002608A2002508A1002408A000AF01F8
:100B4000AE01AD010130AC00A701A601A501A401D1
:100B500088112C08F8008A110A12D42D03081F39B5
:100B60008300A301A201A101A001A701A601A50183
:100B7000A401AB01AA01A901A801AF01AE01AD0119
:100B8000AC01B301B201B101B00183161F149F146F
:100B90001F159F1107309C00831300308600F03032
:0C0BA0008800831272283B2AD32D6300CA
:02400E00313F40
:00000001FF
;PIC16F877A
;CRC=C0B3  CREATED="02-Haz-23 19:54"
